:100000000C9462000C948A000C948A000C948A0070
:100010000C948A000C948A000C948A000C948A0038
:100020000C948A000C948A000C948A000C948A0028
:100030000C948A000C948A000C948A000C948A0018
:100040000C94B9020C948A000C9487020C946102FF
:100050000C948A000C948A000C948A000C948A00F8
:100060000C948A000C948A000000000024002700F1
:100070002A0000000000250028002B0000000008D6
:10008000000201000003040700000000000000005F
:1000900000000000230026002900040404040404D6
:1000A0000404020202020202030303030303010227
:1000B00004081020408001020408102001020408F6
:1000C0001020780411241FBECFEFD8E0DEBFCDBFD3
:1000D00011E0A0E0B1E0E6ECFBE002C005900D927B
:1000E000A631B107D9F721E0A6E1B1E001C01D9228
:1000F000AC3BB207E1F710E0C2E6D0E004C02197C4
:10010000FE010E94DB05C136D107C9F70E944803F2
:100110000C94E1050C940000AF92BF92CF92DF9255
:10012000EF92FF920F931F93CF93DF936C017B01AC
:100130008B01040F151FEB015E01AE18BF08C0173D
:10014000D10759F06991D601ED91FC910190F081B0
:10015000E02DC6010995892B79F7C501DF91CF9173
:100160001F910F91FF90EF90DF90CF90BF90AF90D5
:100170000895FC01538D448D252F30E0842F90E0AD
:10018000821B930B541710F0CF9608950197089592
:10019000FC01918D828D981761F0A28DAE0FBF2F5B
:1001A000B11D5D968C91928D9F5F9F73928F90E0B1
:1001B00008958FEF9FEF0895FC01918D828D981720
:1001C00031F0828DE80FF11D858D90E008958FEF5D
:1001D0009FEF0895FC01918D228D892F90E0805C26
:1001E0009F4F821B91098F73992708958FE191E0AA
:1001F0000E94EA0021E0892B09F420E0822F089573
:1002000080E090E0892B29F00E94F60081110C9487
:1002100000000895FC01A48DA80FB92FB11DA35AA9
:10022000BF4F2C91848D90E001968F739927848F16
:10023000A689B7892C93A089B1898C918370806439
:100240008C93938D848D981306C00288F389E02DDA
:1002500080818F7D80830895EF92FF920F931F938B
:10026000CF93DF93EC0181E0888F9B8D8C8D981369
:100270001AC0E889F989808185FF15C09FB7F89475
:10028000EE89FF896083E889F989808183708064C1
:1002900080839FBF81E090E0DF91CF911F910F910C
:1002A000FF90EF900895F62E0B8D10E00F5F1F4F1B
:1002B0000F731127E02E8C8D8E110CC00FB607FC2A
:1002C000FACFE889F989808185FFF5CFCE010E94B8
:1002D0000A01F1CFEB8DEC0FFD2FF11DE35AFF4F1B
:1002E000F0829FB7F8940B8FEA89FB898081806246
:1002F000CFCFCF93DF93EC01888D8823B9F0AA8903
:10030000BB89E889F9898C9185FD03C0808186FDD0
:100310000DC00FB607FCF7CF8C9185FFF2CF80811F
:1003200085FFEDCFCE010E940A01E9CFDF91CF9189
:10033000089590E0FC01E458FF4F2491FC01E25540
:10034000FF4F3491FC01E656FF4FE491EE23C9F0D4
:10035000222339F0233001F1A8F4213019F12230A1
:1003600029F1F0E0EE0FFF1FEE58FF4FA591B49179
:100370008FB7F894EC91611126C030953E233C93E1
:100380008FBF08952730A9F02830C9F0243049F7ED
:10039000809180008F7D03C0809180008F77809353
:1003A0008000DFCF84B58F7784BDDBCF84B58F7DB0
:1003B000FBCF8091B0008F778093B000D2CF809137
:1003C000B0008F7DF9CF3E2BDACFCF93DF9390E053
:1003D000FC01E255FF4F249186569F4FFC0184910A
:1003E0008823D1F090E0880F991FFC01E859FF4F56
:1003F000A591B491FC01EE58FF4FC591D4916111C4
:100400000EC09FB7F8948C91E22FE0958E238C93C9
:100410002881E223E8839FBFDF91CF9108958FB7B2
:10042000F894EC91E22BEC938FBFF6CF3FB7F894A2
:1004300080911B0190911C01A0911D01B0911E01A2
:1004400026B5A89B05C02F3F19F00196A11DB11D2F
:100450003FBFBA2FA92F982F8827BC01CD01620F6B
:10046000711D811D911D42E0660F771F881F991F26
:100470004A95D1F708950F931F9390E0FC01E25540
:10048000FF4F6491FC01E656FF4FE491F0E0EE0F60
:10049000FF1FE057FF4F8591949100E412E42FE095
:1004A00030E0462F0E940303611571058105910517
:1004B00029F06F5F7F4F8F4F9F4F9F701F910F915C
:1004C00008951F920F920FB60F9211242F933F930E
:1004D0004F935F936F937F938F939F93AF93BF934C
:1004E000EF93FF938FE191E00E940A01FF91EF915A
:1004F000BF91AF919F918F917F916F915F914F913C
:100500003F912F910F900FBE0F901F9018951F9243
:100510000F920FB60F9211242F938F939F93EF9307
:10052000FF93E0912F01F09130018081E09135013E
:10053000F091360182FD1BC09081809138018F5F60
:100540008F7320913901821741F0E0913801F0E07A
:10055000E15EFE4F958F80933801FF91EF919F915F
:100560008F912F910F900FBE0F901F901895808143
:10057000F4CF1F920F920FB60F9211242F933F9337
:100580008F939F93AF93BF93809117019091180120
:10059000A0911901B0911A013091160123E0230FA7
:1005A0002D3758F50196A11DB11D2093160180939A
:1005B000170190931801A0931901B0931A0180912B
:1005C0001B0190911C01A0911D01B0911E0101968B
:1005D000A11DB11D80931B0190931C01A0931D01CF
:1005E000B0931E01BF91AF919F918F913F912F9139
:1005F0000F900FBE0F901F90189526E8230F0296BC
:10060000A11DB11DD2CFCF92DF92EF92FF920F9337
:100610001F93E82FF92F05C0015011092109310955
:1006200061F1908196239417B9F305C00150110927
:100630002109310911F1908196239413F7CFC12C30
:10064000D12CE12CF12C0AC08FEFC81AD80AE80A85
:10065000F80A0C151D052E053F0579F080818623CB
:10066000841791F36C2D7D2D8E2D9F2D1F910F9151
:10067000FF90EF90DF90CF90089560E070E080E011
:1006800090E01F910F91FF90EF90DF90CF90089531
:10069000789484B5826084BD84B5816084BD85B55D
:1006A000826085BD85B5816085BD80916E00816069
:1006B00080936E001092810080918100826080930F
:1006C0008100809181008160809381008091800011
:1006D0008160809380008091B10084608093B1003C
:1006E0008091B00081608093B00080917A00846036
:1006F00080937A0080917A00826080937A00809162
:100700007A00816080937A0080917A00806880937B
:100710007A001092C100E0912F01F091300182E047
:100720008083E0912B01F0912C011082E0912D014A
:10073000F0912E018FEC808310923701E09133010C
:10074000F091340186E08083E0913101F091320133
:10075000808180618083E0913101F091320180815C
:1007600088608083E0913101F0913201808180685E
:100770008083E0913101F091320180818F7D80830F
:1007800061E08DE00E94E50160E08CE00E94E501FF
:1007900061E08BE00E94E50161E08AE00E94E501F2
:1007A00060E089E00E94E50161E088E00E94E501E7
:1007B000C3E2D0E000E010E041E050E063E171E02E
:1007C0008FE191E00E948C0042E050E062E171E034
:1007D0008FE191E00E948C0061E08DE00E94990120
:1007E000CE010197F1F760E08DE00E9499018CE065
:1007F0000E943B029B0177FF02C02F5F3F4FB90170
:1008000075956795072E000C880B990B0E944F0574
:100810002DEC3CEC48EE51E40E94A5040E94170523
:100820006B3F71050CF460C061E08BE00E949901A0
:1008300061E08AE00E949901CE010197F1F760E042
:100840008AE00E94990189E00E943B029B0177FFA8
:1008500002C02F5F3F4FB90175956795072E000CB9
:10086000880B990B0E944F052DEC3CEC48EE51E4AF
:100870000E94A5040E9417056B3F7105BCF161E061
:1008800088E00E9499010E9416024B015C0180EDF4
:10089000C82E87E0D82EE12CF12C0E941602681990
:1008A00079098A099B09683E734081059105A8F37F
:1008B00021E0C21AD108E108F10888EE880E83E031
:1008C000981EA11CB11CC114D104E104F10429F744
:1008D0000115110509F470CF0E94F600882309F470
:1008E0006BCF0E94000068CF60E09FCF60E0C8CF70
:1008F000EFE1F1E01382128288EE93E0A0E0B0E035
:1009000084839583A683B78384E091E09183808379
:1009100085EC90E09587848784EC90E097878687C4
:1009200080EC90E0918B808B81EC90E0938B828BBC
:1009300082EC90E0958B848B86EC90E0978B868B95
:10094000118E128E138E148E08950E94B9040C9489
:10095000A1050E949A0558F00E94930540F029F4E1
:100960005F3F29F00C948A0551110C94D5050C9425
:1009700090050E94B20568F39923B1F3552391F3D2
:10098000951B550BBB27AA2762177307840738F0FE
:100990009F5F5F4F220F331F441FAA1FA9F335D05B
:1009A0000E2E3AF0E0E832D091505040E695001C0F
:1009B000CAF72BD0FE2F29D0660F771F881FBB1FC9
:1009C000261737074807AB07B0E809F0BB0B802DA7
:1009D000BF01FF2793585F4F3AF09E3F510578F0D3
:1009E0000C948A050C94D5055F3FE4F3983ED4F34C
:1009F000869577956795B795F7959F5FC9F7880FA7
:100A0000911D9695879597F90895E1E0660F771FF8
:100A1000881FBB1F621773078407BA0720F0621B89
:100A2000730B840BBA0BEE1F88F7E09508950E94B4
:100A30001E056894B1110C94D50508950E94BA055D
:100A400088F09F5798F0B92F9927B751B0F0E1F08F
:100A5000660F771F881F991F1AF0BA95C9F714C03F
:100A6000B13091F00E94D405B1E008950C94D40502
:100A7000672F782F8827B85F39F0B93FCCF3869578
:100A800077956795B395D9F73EF4909580957095D5
:100A900061957F4F8F4F9F4F0895E89409C097FB52
:100AA0003EF490958095709561957F4F8F4F9F4F45
:100AB0009923A9F0F92F96E9BB279395F695879589
:100AC00077956795B795F111F8CFFAF4BB0F11F44C
:100AD00060FF1BC06F5F7F4F8F4F9F4F16C08823F3
:100AE00011F096E911C0772321F09EE8872F762F29
:100AF00005C0662371F096E8862F70E060E02AF06A
:100B00009A95660F771F881FDAF7880F9695879555
:100B100097F9089597F99F6780E870E060E008957D
:100B20009FEF80EC089500240A9416161706180605
:100B30000906089500240A941216130614060506E1
:100B40000895092E0394000C11F4882352F0BB0F72
:100B500040F4BF2B11F460FF04C06F5F7F4F8F4FD5
:100B60009F4F089557FD9058440F551F59F05F3F10
:100B700071F04795880F97FB991F61F09F3F79F0BF
:100B800087950895121613061406551FF2CF469541
:100B9000F1DF08C0161617061806991FF1CF8695C3
:100BA0007105610508940895E894BB2766277727A7
:100BB000CB0197F90895EE0FFF1F0590F491E02DFA
:060BC0000994F894FFCF38
:100BC600000000002C018C00B9007901EA00C80081
:060BD600DC000D0A000026
:00000001FF
